:03000000020006F5
:03005F0002000399
:030003000200C731
:10006200AE82AF83EE4F6016C28D758CA2758A4048
:10007200D28C308DFDC28C1EBEFF011F80E622AFE6
:10008200827E00EF30E71AD294900004C007C006C7
:10009200120062C294900001120062D006D0078062
:1000A20018D294900001C007C006120062C2949058
:1000B2000004120062D006D0078F05ED2DFF0EBEA0
:1000C200080040BF2275A15575A1AA75B98675A110
:1000D200005392EF4393105390EF43C98043C910EA
:1000E20075890175E22943D10130D80FD294C294A7
:1000F20075EC0175ED0075DC02C2D830D9EBD294F3
:10010200C294D294C2949000017414F090000274CC
:1001120012F09000037419F09000047486F075DDFB
:080122000475DC00C2D980C1A4
:06003500E478FFF6D8FD9F
:100013007900E94400601B7A0090012E784175A0B5
:1000230000E493F2A308B8000205A0D9F4DAF2754C
:02003300A0FF2C
:10003B007800E84400600A790175A000E4F309D860
:10004B00FC7840E84400600C7901900001E4F0A3D7
:04005B00D8FCD9FAFA
:0D00060075810712012AE5826003020003E4
:04012A0075820022B8
:00000001FF
