:03000000020006F5
:06005F0075080002000319
:030003000200CA2E
:20006500AE82AF83EE4F6016C28D758CA2758A40D28C308DFDC28C1EBEFF011F80E622AF9D
:20008500827E00EF30E71AD294900004C007C006120065C294900001120065D006D00780B2
:2000A50018D294900001C007C006120065C294900004120065D006D0078F05ED2DFF0EBEA1
:2000C500080040BF2275A15575A1AA75B98675A1005392EF4393105390EF43C98043C910C9
:2000E50075890175E22943D10130D815D294C29475E30075080075EC0175ED0075DC02C2E0
:20010500D830D9E5E5D9540F600302020FAED95306307F00BE3005BF000280030201D29052
:200125000001E0FF20E7030201A8D294C294D294C294900002E0FFBF0602800302020F904F
:200145000004E0FFBF0102800302020F900007E0FFBF120040247F00EF2401FDE43400FE0E
:20016500EF90021893FC8D828E83F00FBF120040E775DD1275DCC002020F7F00900007E0BD
:20018500FEC3EF9E5016EF2401FCE43400FDEF90021893FB8C828D83F00F80E08EDD75DC21
:2001A500408067900002E0FFBF055FD294C294D294C294D294C294D294C294D294C2949043
:2001C5000003E0F50875DD0075DC40803DE5D9543060028012D294C294D294C294D294C2C4
:2001E50094D294C2948023AED95306307F00BE2019BF0016D294C294D294C294D294C29478
:0F020500E50860068508E3750800C2D90200EE1F
:1202180012010000FF000040341278560000000000016D
:06003500E478FFF6D8FD9F
:200013007900E94400601B7A0090022A784175A000E493F2A308B8000205A0D9F4DAF27527
:02003300A0FF2C
:20003B007800E84400600A790175A000E4F309D8FC7840E84400600C7901900001E4F0A382
:04005B00D8FCD9FAFA
:0D000600758108120214E5826003020003F8
:0402140075820022CD
:00000001FF
