:03000000020006F5
:03005F0002000399
:0300030002008177
:10006200AE82AF83EE4F6016C28D758CA2758A4048
:10007200D28C308DFDC28C1EBEFF011F80E6227520
:10008200A15575A1AA75B98675A1005392EF439344
:10009200105390EF43C98043C9107589017F00D284
:1000A200949001F4C007120062C2949001F412000D
:1000B20062D0070FBF050040E643E2204390109054
:1000C20000641200625390EF90006412006280ECB0
:06003500E478FFF6D8FD9F
:100013007900E94400601B7A009000D6780175A04E
:1000230000E493F2A308B8000205A0D9F4DAF2754C
:02003300A0FF2C
:10003B007800E84400600A790175A000E4F309D860
:10004B00FC7800E84400600C7900900001E4F0A318
:04005B00D8FCD9FAFA
:0D0006007581071200D2E58260030200033D
:0400D2007582002211
:00000001FF
