:03000000020006F5
:09005F0075080075090002000398
:030003000200CD2B
:10006800AE82AF83EE4F6016C28D758CA2758A4042
:10007800D28C308DFDC28C1EBEFF011F80E622AFE0
:10008800827E00EF30E71AD294900004C007C006C1
:10009800120068C294900001120068D006D0078050
:1000A80018D294900001C007C006120068C294904C
:1000B8000004120068D006D0078F05ED2DFF0EBE94
:1000C800080040BF2275A15575A1AA75B98675A10A
:1000D800005392EF4393105390EF43C98043C910E4
:1000E80075890175E22943D10130D81175E300758E
:1000F800080075EC0175ED0075DC02C2D830D9E94D
:10010800E5D9540F600302026FAED95306307F0061
:10011800BE3005BF00028003020237900001E0FFF5
:1001280020E7030201E9900002E0FFBF0602800316
:100138000202E6900004E0FFBF0102800EBF020247
:10014800803DBF06030201DD0202E675090090004A
:1001580007E0FFBF120050030202E67F00EF240110
:10016800FDE43400FEEF9002EF93FC8D828E83F065
:100178000FBF120040E775DD1275DCC00202E6759C
:100188000900900007E0FFBF200040247E00EE2415
:1001980001FCE43400FDEE90030193FB8C828D8317
:1001A800F00EBE200040E775DD2075DCC00202E6D7
:1001B8007E00C3EE9F5016EE2401FCE43400FDEEF1
:1001C80090030193FB8C828D83F00E80E58FDD75A3
:1001D800DCC00202E675090075DD0075DCC00202AC
:1001E800E6900002E0FFBF05028008BF0902801503
:1001F8000202E6750901900003E0F50875DD007557
:10020800DC400202E675D21243EA8053EABF75EE7B
:100218004175EF0075D41A43EB0453EBF775E4818D
:1002280075E50075090175DD0075DC400202E6E53B
:10023800D9543070030202E6AED95306307F00BEAF
:100248002005BF000280030202E6E509700975096E
:100258000175DCC20202E6E50860068508E3750858
:100268000075DC420202E6AED953060F7F00BE01DC
:1002780058BF0055900041E0FFBF0104D294805E52
:10028800BF0204C2948057BF0354D294C294900012
:10029800817414F09000827412F09000837419F045
:1002A8009000847490F09000857405F09000867436
:1002B80002F09000877419F09000887490F075D55A
:1002C80040E5D454FCF5D48015AED953060F7F0011
:1002D800BE020BBF0008E5D4440254FEF5D4C2D9CF
:0302E8000200F120
:1002EF0012010002FF000040341278560000000097
:1002FF00000109022000010100C0320904000002C0
:10030F00FFFFFF00070501024000010705820240C1
:02031F000001DB
:06003500E478FFF6D8FD9F
:100013007900E94400601B7A0090032178C175A040
:1000230000E493F2A308B8000205A0D9F4DAF2754C
:02003300A0FF2C
:10003B007800E84400600A790175A000E4F309D860
:10004B00FC78C0E84400600C7901900001E4F0A357
:04005B00D8FCD9FAFA
:0D0006007581091202EBE582600302000320
:0402EB0075820022F6
:00000001FF
