:03000000020006F5
:09005F0075080075090002000398
:030003000200CD2B
:10006800AE82AF83EE4F6016C28D758CA2758A4042
:10007800D28C308DFDC28C1EBEFF011F80E622AFE0
:10008800827E00EF30E71AD294900004C007C006C1
:10009800120068C294900001120068D006D0078050
:1000A80018D294900001C007C006120068C294904C
:1000B8000004120068D006D0078F05ED2DFF0EBE94
:1000C800080040BF2275A15575A1AA75B98675A10A
:1000D800005392EF4393105390EF43C98043C910E4
:1000E80075890175E22943D10130D81175E300758E
:1000F800080075EC0175ED0075DC02C2D830D9E94D
:10010800E5D9540F600302026FAED95306307F0061
:10011800BE3005BF00028003020237900001E0FFF5
:1001280020E7030201E9900002E0FFBF0602800316
:100138000202CE900004E0FFBF0102800EBF02025F
:10014800803DBF06030201DD0202CE750900900062
:1001580007E0FFBF120050030202CE7F00EF240128
:10016800FDE43400FEEF9002D793FC8D828E83F07D
:100178000FBF120040E775DD1275DCC00202CE75B4
:100188000900900007E0FFBF200040247E00EE2415
:1001980001FCE43400FDEE9002E993FB8C828D8330
:1001A800F00EBE200040E775DD2075DCC00202CEEF
:1001B8007E00C3EE9F5016EE2401FCE43400FDEEF1
:1001C8009002E993FB8C828D83F00E80E58FDD75BC
:1001D800DCC00202CE75090075DD0075DCC00202C4
:1001E800CE900002E0FFBF05028008BF090280151B
:1001F8000202CE750901900003E0F50875DD00756F
:10020800DC400202CE75D21243EA8053EABF75EE93
:100218004175EF0075D41A43EB0453EBF775E4818D
:1002280075E50075090175DD0075DC400202CEE553
:10023800D9543070030202CEAED95306307F00BEC7
:100248002005BF000280030202CEE5097009750986
:100258000175DCC20202CEE50860068508E3750870
:100268000075DC420202CEAED953060F7F00BE01F4
:1002780040BF003D900041E0FFBF0104D29480469A
:10028800BF0204C294803FBF033CD294C294900042
:10029800817414F09000827412F09000837419F045
:1002A8009000847490F075D540E5D454FCF5D48062
:1002B80015AED953060F7F00BE020BBF0008E5D468
:0B02C800440254FEF5D4C2D90200F13C
:1002D70012010002FF0000403412785600000000AF
:1002E700000109022000010100C0320904000002D8
:1002F700FFFFFF00070501024000010705820240DA
:020307000001F3
:06003500E478FFF6D8FD9F
:100013007900E94400601B7A0090030978C175A058
:1000230000E493F2A308B8000205A0D9F4DAF2754C
:02003300A0FF2C
:10003B007800E84400600A790175A000E4F309D860
:10004B00FC78C0E84400600C7901900001E4F0A357
:04005B00D8FCD9FAFA
:0D0006007581091202D3E582600302000338
:0402D300758200220E
:00000001FF
