:03000000020006F5
:09005F0075080075090002000398
:030003000200CD2B
:10006800AE82AF83EE4F6016C28D758CA2758A4042
:10007800D28C308DFDC28C1EBEFF011F80E622AFE0
:10008800827E00EF30E71AD294900004C007C006C1
:10009800120068C294900001120068D006D0078050
:1000A80018D294900001C007C006120068C294904C
:1000B8000004120068D006D0078F05ED2DFF0EBE94
:1000C800080040BF2275A15575A1AA75B98675A10A
:1000D800005392EF4393105390EF43C98043C910E4
:1000E80075890175E22943D10130D815D294C2949B
:1000F80075E30075080075EC0175ED0075DC02C24A
:10010800D830D9E5D294C294E5D9540F60030202DD
:1001180012AED95306307F00BE3005BF00028003FF
:100128000201E6900001E0FF20E7030201CD900004
:1001380002E0FFBF06028003020212900004E0FF03
:10014800BF0102800EBF0202803DBF06030201C24A
:10015800020212750900900007E0FFBF1200500369
:100168000202127F00EF2401FDE43400FEEF90024A
:100178001B93FC8D828E83F00FBF120040E775DD64
:100188001275DCC0020212750900900007E0FFBF7B
:10019800090050030202127F00EF2401FDE434003D
:1001A800FEEF90022D93FC8D828E83F00FBF090025
:1001B80040E775DD0975DCC0805075090075DD0004
:1001C80075DCC08045900002E0FFBF053D75090160
:1001D800900003E0F50875DD0075DC40802CE5D95A
:1001E80054306026AED95306307F00BE201CBF00B5
:1001F80019E509700875090175DCC2800DE508600C
:0F020800068508E375080075DC42C2D90200F1D3
:10021B0012010002FF00004034127856000000006B
:0B022B00000109020900010100C032BF
:06003500E478FFF6D8FD9F
:100013007900E94400601B7A00900236784175A0AC
:1000230000E493F2A308B8000205A0D9F4DAF2754C
:02003300A0FF2C
:10003B007800E84400600A790175A000E4F309D860
:10004B00FC7840E84400600C7901900001E4F0A3D7
:04005B00D8FCD9FAFA
:0D000600758109120217E5826003020003F4
:0402170075820022CA
:00000001FF
