:03000000020006F5
:03005F0002000399
:030003000200C731
:10006200AE82AF83EE4F6016C28D758CA2758A4048
:10007200D28C308DFDC28C1EBEFF011F80E622AFE6
:10008200827E00EF30E71AD294900004C007C006C7
:10009200120062C294900001120062D006D0078062
:1000A20018D294900001C007C006120062C2949058
:1000B2000004120062D006D0078F05ED2DFF0EBEA0
:1000C200080040BF2275A15575A1AA75B98675A110
:1000D200005392EF4393105390EF43C98043C910EA
:1000E20075890175E22943D10130D80FD294C294A7
:1000F20075EC0175ED0075DC02C2D830D9EBE5D99B
:10010200540F600302019C900001E0FF20E703020C
:10011200018CD294C294D294C294900002E0FFBFA8
:100122000602800302019C900004E0FFBF010280EE
:100132000302019C900007E0FFBF120040237F00F2
:10014200EF2401FDE43400FEEF9001A593FC8D82C3
:100152008E83F00FBF120040E775DD1275DCC080A0
:10016200397F00900007E0FEC3EF9E5016EF240196
:10017200FCE43400FDEF9001A593FB8C828D83F0AB
:100182000F80E08EDD75DC408010D294C294D29450
:0F019200C294D294C294D294C294C2D90200EB08
:1001A50012010000FF0000403412785600000000E4
:0201B500000147
:06003500E478FFF6D8FD9F
:100013007900E94400601B7A009001B7784175A02C
:1000230000E493F2A308B8000205A0D9F4DAF2754C
:02003300A0FF2C
:10003B007800E84400600A790175A000E4F309D860
:10004B00FC7840E84400600C7901900001E4F0A3D7
:04005B00D8FCD9FAFA
:0D0006007581071201A1E58260030200036D
:0401A1007582002241
:00000001FF
